:1000000019C018951895189518951895189518955C
:100010001895189518951895189518951895189578
:100020001895189518951895189518951895189568
:10003000189518958FEF8DBFC8EDE0EC4E2E84E03B
:100040008EBFD4E0F4E05F2EA89584B7082E877F9A
:1000500084BF88E199278093600090936000EEEF61
:10006000F3E0A0E0B1E088278D933197E9F76624AB
:100070008FEF87B98FEF8AB980E0809300010091FC
:100080000001063010F009F015C0A0E0B1E08C913D
:1000900088B973E07BB984EF91E018D070E07BB948
:1000A00084EF91E013D0A0E0B1E08C918F5F8C934E
:1000B00008F4E5CFE1CFF894FFCF3197F1F7089539
:1000C000689462F80895E89462F80895EF93FF93B6
:1000D000EE27E82BE92B31F0E8EEF3E03197F1F76A
:0A00E0000197D1F7FF91EF91089509
:00000001FF
