:1000000019C018951895189518951895189518955C
:100010001895189518951895189518951895189578
:100020001895189518951895189518951895189568
:10003000189518958FEF8DBFC8EDECE84E2E84E033
:100040008EBFD4E0F4E05F2EA89584B7082E877F9A
:1000500084BF88E199278093600090936000EEEF61
:10006000F3E0A0E0B1E088278D933197E9F76624AB
:10007000209A81E083B9E1E0F0E003D0FACFF89470
:10008000FFCF88EE93E00CD03197D9F708953197E0
:10009000F1F70895689462F80895E89462F8089575
:1000A000EF93FF93EE27E82BE92B31F0EAEFF0E036
:0E00B0003197F1F70197D1F7FF91EF91089585
:00000001FF
