:1000000012C0189518951895189518951895189563
:100010001895189518951895189518951895189578
:100020001895189518958FE58DBFC8E3ECEE4E2E08
:1000300084E08EBFD4E0F3E05F2EA89584B7082E4D
:10004000877F84BF88E1992781BD91BDEEEFF3E002
:10005000A0E6B0E088278D933197E9F766248FEF0B
:1000600087BBC09A88B391E0892788BB84EF91E071
:100070000CD0F8CFF894FFCF3197F1F7089568943A
:1000800062F80895E89462F80895EF93FF93EE27DD
:10009000E82BE92B31F0E8EEF3E03197F1F7019727
:0800A000D1F7FF91EF910895E3
:00000001FF
