:1000000019C018951895189518950AC1189518953E
:100010001895189518951895189518951895189578
:100020001895189518951895189518951895189568
:10003000189518958FEF8DBFC8EDECE84E2E84E033
:100040008EBFD4E0F4E05F2EA89584B7082E877F9A
:1000500084BF88E199278093600090936000EEEF61
:10006000F3E0A0E0B1E088278D933197E9F76624AB
:1000700042D170916D00716070936D0070916D0050
:10008000726070936D007091680074607093680086
:1000900078945098519881E080930C018AEF809376
:1000A000200180E08093040186E08093050182E1D5
:1000B00080930601ADE0B1E0E4E2F4E045D182E0F6
:1000C000809301015FD11091010172D162FA0EF4A7
:1000D00004C0E2E0F0E0E7D005C0A1E0B1E08C911F
:1000E0008E5F8C935CD162FA0EF4E9CF80E080934E
:1000F0001F0137D022D000912001003009F005C047
:100100005ED084EF91E011D182D0009120010A3FAE
:1001100008F005C0A0E2B1E08C918F5F8C93A0E065
:10012000B1E08C9187FB0EF005C0709100017F77E4
:1001300070930001E0CFF894FFCF8BE08093020131
:1001400085E08093030108D089E0809302018FE06D
:100150008093030101D0089592E0A2E0B1E0C4D001
:10016000089510D112E024D11AE022D110E020D15C
:1001700010E01ED112E01CD117E01AD110D1089561
:1001800080910601A1D0A7E0B1E08C938091050198
:100190009BD0A8E0B1E08C9380E080930901F2D07D
:1001A00012E006D110E004D11091090101D11091A3
:1001B0000801FED010910701FBD0F1D00895E2D0E4
:1001C00012E0F6D010E0F4D0DDD013E0F1D00FD182
:1001D000A9E0B1E01C930BD1A8E0B1E01C9305D1DC
:1001E000A7E0B1E01C93DBD09091070173D0A6E0AB
:1001F000B1E08C93909108016DD0A5E0B1E08C93B3
:100200009091090167D0A4E0B1E08C930895BAD031
:1002100012E0CED01EE0CCD011E0CAD0C0D00895FC
:100220000F921F922F923F924F925F927F92AF92C6
:10023000BF920F931F932F933F934F935F936F93AF
:100240007F938F939F93AF93BF93CF93DF93EF935E
:10025000FF938FB78F93199905C070910001706853
:10026000709300011A9903C080E0809320018F9160
:100270008FBFFF91EF91DF91CF91BF91AF919F9190
:100280008F917F916F915F914F913F912F911F912E
:100290000F91BF90AF907F905F904F903F902F90C5
:1002A0001F900F90189588EE93E03FD03197D9F7C3
:1002B0000895982F82958F70805D8D939F70905DCB
:1002C0009D9388278C9308954AE0082F46D0029585
:1002D000802B0895892F8F70905110F0865FFCCF8E
:1002E00008953197F1F708950FD08D9111D09A9517
:1002F000E1F70CD00895259A24982C9A239A229AF3
:100300002A9A80E78CBD08952A9808952A9A08951C
:100310008EBD00904D0007FEFCCF8EB50895689409
:1003200062F80895E89462F80895EF93FF93EE273A
:10033000E82BE92B31F0EAEFF0E03197F1F7019784
:10034000D1F7FF91EF91089504D00D920020E1F7CD
:100350000895C895319600200895FF93881BF9E011
:10036000001FFA9511F4FF910895881F841B18F45B
:10037000840F8894F5CF0894F3CF3C983D98449827
:10038000459808953D9A3C9803D03D9801D03C9AF9
:1003900000000000000000000000000008953D9AE9
:1003A0003C9AF6DF3D98359BFECFF2DF3C98F0CFCC
:1003B0000894111F01C0110F69F03D9A18F4000054
:1003C0003C9802C03C9A00C0E3DF3D98359BFECFCD
:1003D000DFDFF1CF3D9A3C98DBDF3D98359BFECFC8
:1003E000E8943499689462F8D3CF089401C0889453
:1003F000331F11E03D9A3C98CBDF3D98359BFECFF3
:10040000C7DF889434990894111FA0F73D9A379557
:1004100010F43C9801C03C9ABBDF3D98359BFECF61
:0A042000B7DF0895313830360000D0
:00000001FF
