:1000000019C01895189518951895BBC1189518958D
:100010001895189518951895189518951895189578
:100020001895189518951895189518951895189568
:10003000189518958FEF8DBFC8EDECE84E2E84E033
:100040008EBFD4E0F4E05F2EA89584B7082E877F9A
:1000500084BF88E199278093600090936000EEEF61
:10006000F3E0A0E0B1E088278D933197E9F76624AB
:10007000F3D170916D00716070936D0070916D009F
:10008000726070936D007091680074607093680086
:10009000789450985198209A8AEF80930A0180E0D2
:1000A0008093040186E08093050182E1809306013C
:1000B000289AE2E0F0E0A8D1289882E0809301013C
:1000C00019D2109101012CD262FA0EF404C0E2E0C0
:1000D000F0E09AD105C0A1E0B1E08C918E5F8C93E5
:1000E00016D262FA0EF4E9CFEDD037D0A0E0B1E03D
:1000F0008C9187FB0EF02EC013D100910A010030C5
:1001000009F009C0289A84EF91E0C0D1289830D135
:100110008AEF80930A0100910A010A3F08F005C0A6
:10012000AAE0B1E08C918F5F8C9381E083B9A0E06D
:10013000B1E08C9186FB882780F9809580FBA0E058
:10014000B1E08C9186F98C935CD0709100017F773F
:1001500070930001CBCFF894FFCF8CE08093020125
:1001600081E08093030192E0A2E0B1E06ED18FE0E4
:100170008093020181E08093030192E0A2E0B1E06C
:1001800064D1E2E0F0E040D18FE08093020180E0B2
:100190008093030192E0A2E0B1E057D18AE080931E
:1001A00002018FE08093030192E0A2E0B1E04DD123
:1001B0008BE08093020185E08093030192E0A2E04E
:1001C000B1E043D189E0809302018FE08093030185
:1001D00092E0A2E0B1E039D186E08093020180E0B4
:1001E0008093030192E0A2E0B1E02FD185E08093FB
:1001F000020180E08093030192E0A2E0B1E025D10A
:10020000089581E080930201809106010ED1A3E060
:10021000B1E08C9394E0A3E0B1E04FD192E0A2E092
:10022000B1E013D182E08093020180910601FDD0FC
:10023000A3E0B1E08C9394E0A3E0B1E036D194E088
:10024000A3E0B1E03AD192E0A2E0B1E0FED083E0D9
:100250008093020180910501E8D0A3E0B1E08C9386
:1002600094E0A3E0B1E029D192E0A2E0B1E0EDD0CA
:1002700084E08093020180910501D7D0A3E0B1E032
:100280008C9394E0A3E0B1E010D194E0A3E0B1E05E
:1002900014D192E0A2E0B1E0D8D085E080930201D1
:1002A000A0E0B1E08C9186FB0EF004C080E6809364
:1002B000030103C080E08093030192E0A2E0B1E07B
:1002C000C4D0089517D112E02BD11AE029D110E043
:1002D00027D110E025D112E023D117E021D117D189
:1002E000089580910601A1D0A7E0B1E08C938091A0
:1002F00005019BD0A8E0B1E08C9380E080930901D8
:10030000F9D012E00DD110E00BD11091090108D104
:100310001091080105D11091070102D1F8D008957C
:10032000E9D012E0FDD010E0FBD0E4D013E0F8D02B
:1003300016D1A9E0B1E01C9312D1A8E0B1E01C9362
:100340000CD1A7E0B1E01C93E2D09091070173D0EB
:10035000A6E0B1E08C93909108016DD0A5E0B1E0EA
:100360008C939091090167D0A4E0B1E08C9308953B
:10037000C1D012E0D5D01EE0D3D011E0D1D0C7D08B
:1003800008950F921F922F923F924F925F927F9209
:10039000AF92BF920F931F932F933F934F935F930F
:1003A0006F937F938F939F93AF93BF93CF93DF937D
:1003B000EF93FF938FB78F93489905C07091000119
:1003C000706870930001499903C080E080930A012E
:1003D0008F918FBFFF91EF91DF91CF91BF91AF913F
:1003E0009F918F917F916F915F914F913F912F914D
:1003F0001F910F91BF90AF907F905F904F903F9073
:100400002F901F900F90189588EE93E03FD0319772
:10041000D9F70895982F82958F70805D8D939F7086
:10042000905D9D9388278C9308954AE0082F4DD0C6
:100430000295802B0895892F8F70905110F0865F60
:10044000FCCF08953197F1F708950FD08D9111D019
:100450009A95E1F70CD00895259A24982C9A239A1E
:10046000229A2A9A80E58CBD08952A9808952A9A9E
:1004700008958EBD00904D0007FEFCCF8EB5089507
:10048000689462F80895E89462F80895EF93FF93F2
:10049000EE27E82BE92B31F0EAEFF0E03197F1F7A6
:1004A0000197D1F7FF91EF910895903029F08C9149
:1004B000880F9A95E9F78C930895903029F08C91E4
:1004C00086959A95E9F78C930895FF93881BF9E038
:1004D000001FFA9511F4FF910895881F841B18F4EA
:1004E000840F8894F5CF0894F3CF3C983D984498B6
:1004F000459808953D9A3C9803D03D9801D03C9A88
:1005000000000000000000000000000008953D9A77
:100510003C9AF6DF3D98359BFECFF2DF3C98F0CF5A
:100520000894111F01C0110F69F03D9A18F40000E2
:100530003C9802C03C9A00C0E3DF3D98359BFECF5B
:10054000DFDFF1CF3D9A3C98DBDF3D98359BFECF56
:10055000E8943499689462F8D3CF089401C08894E1
:10056000331F11E03D9A3C98CBDF3D98359BFECF81
:10057000C7DF889434990894111FA0F73D9A3795E6
:1005800010F43C9801C03C9ABBDF3D98359BFECFF0
:04059000B7DF089534
:00000001FF
